:100000000C9462000C94CD070C9415080C94F10725
:100010000C948A000C948A000C948A000C948A0038
:100020000C948A000C948A000C948A000C948A0028
:100030000C948A000C948A000C948A000C948A0018
:100040000C941E060C9483070C94EC050C94C605C6
:100050000C948A000C948A000C948A000C948A00F8
:100060000C9468060C948A0000000000240027000D
:100070002A0000000000250028002B0000000000DE
:1000800023002600290004040404040404040202DA
:100090000202020203030303030301020408102007
:1000A0004080010204081020010204081020000012
:1000B0000008000201000003040700000000000027
:1000C0000000390811241FBECFEFD8E0DEBFCDBF3E
:1000D00011E0A0E0B1E0E6E8F9E102C005900D9280
:1000E000A835B107D9F722E0A8E5B1E001C01D921B
:1000F000A33BB207E1F710E0C2E6D0E004C02197CD
:10010000FE010E94BB0CC136D107C9F70E948108CD
:100110000C94C10C0C940000AF92BF92CF92DF926E
:10012000EF92FF920F931F93CF93DF936C017B01AC
:100130008B01040F151FEB015E01AE18BF08C0173D
:10014000D10759F06991D601ED91FC910190F081B0
:10015000E02DC6010995892B79F7C501DF91CF9173
:100160001F910F91FF90EF90DF90CF90BF90AF90D5
:100170000895FC01538D448D252F30E0842F90E0AD
:10018000821B930B541710F0CF9608950197089592
:10019000FC01918D828D981761F0A28DAE0FBF2F5B
:1001A000B11D5D968C91928D9F5F9F73928F90E0B1
:1001B00008958FEF9FEF0895FC01918D828D981720
:1001C00031F0828DE80FF11D858D90E008958FEF5D
:1001D0009FEF0895FC01918D228D892F90E0805C26
:1001E0009F4F821B91098F73992708958EEF91E09D
:1001F0000E94EA0021E0892B09F420E0822F089573
:1002000080E090E0892B29F00E94F60081110C9487
:1002100000000895FC01A48DA80FB92FB11DA35AA9
:10022000BF4F2C91848D90E001968F739927848F16
:10023000A689B7892C93A089B1898C918370806439
:100240008C93938D848D981306C00288F389E02DDA
:1002500080818F7D80830895EF92FF920F931F938B
:10026000CF93DF93EC0181E0888F9B8D8C8D981369
:100270001AC0E889F989808185FF15C09FB7F89475
:10028000EE89FF896083E889F989808183708064C1
:1002900080839FBF81E090E0DF91CF911F910F910C
:1002A000FF90EF900895F62E0B8D10E00F5F1F4F1B
:1002B0000F731127E02E8C8D8E110CC00FB607FC2A
:1002C000FACFE889F989808185FFF5CFCE010E94B8
:1002D0000A01F1CFEB8DEC0FFD2FF11DE35AFF4F1B
:1002E000F0829FB7F8940B8FEA89FB898081806246
:1002F000CFCFCF93DF93EC01888D8823B9F0AA8903
:10030000BB89E889F9898C9185FD03C0808186FDD0
:100310000DC00FB607FCF7CF8C9185FFF2CF80811F
:1003200085FFEDCFCE010E940A01E9CFDF91CF9189
:100330000895833081F028F4813099F08230A9F05B
:1003400008958730A9F08830C9F08430B1F48091E5
:1003500080008F7D03C0809180008F778093800024
:10036000089584B58F7784BD089584B58F7DFBCFC4
:100370008091B0008F778093B00008958091B00095
:100380008F7DF9CFCF93DF93282F30E0F901E2552D
:10039000FF4F8491F901E656FF4FD491F901EA57D6
:1003A000FF4FC491CC23A1F081110E949901EC2F41
:1003B000F0E0EE0FFF1FE458FF4FA591B491EC91D0
:1003C000ED2381E090E009F480E0DF91CF91089582
:1003D00080E090E0FACF1F93CF93DF93282F30E097
:1003E000F901E255FF4F8491F901E656FF4FD49190
:1003F000F901EA57FF4FC491CC23A9F0162F8111C0
:100400000E949901EC2FF0E0EE0FFF1FEE58FF4F16
:10041000A591B4918FB7F894EC91111108C0D095C3
:10042000DE23DC938FBFDF91CF911F910895DE2BE8
:10043000F8CFCF93DF9390E0FC01E656FF4F249175
:100440008A579F4FFC0184918823C9F090E0880F60
:10045000991FFC01E859FF4FA591B491FC01EE589A
:10046000FF4FC591D49161110DC09FB7F8948C9145
:10047000209582238C938881282328839FBFDF9136
:10048000CF910895623051F49FB7F8943C91822F38
:10049000809583238C93E8812E2BEFCF8FB7F89430
:1004A000EC912E2B2C938FBFEACF8E5080648093DB
:1004B0007C0080917A00806480937A0080917A0039
:1004C00086FDFCCF809178009091790008953FB728
:1004D000F8948091F3019091F401A091F501B0910D
:1004E000F60126B5A89B05C02F3F19F00196A11D66
:1004F000B11D3FBFBA2FA92F982F8827BC01CD016E
:10050000620F711D811D911D42E0660F771F881FCC
:10051000991F4A95D1F708958F929F92AF92BF92FB
:10052000CF92DF92EF92FF924B015C010E94670233
:100530006B017C010E9467026C197D098E099F097D
:10054000683E734081059105A8F321E0821A910865
:10055000A108B10888EEC80E83E0D81EE11CF11C8A
:1005600081149104A104B10429F7FF90EF90DF906A
:10057000CF90BF90AF909F908F9008951F93CF938F
:10058000DF93C1E0C0938301882399F1D091B80033
:100590001091BA008091BC008A7B8093BC0060E01F
:1005A00082E10E94EB0160E083E10E94EB01109286
:1005B000C801C093CA011092C90161E082E10E94A2
:1005C000EB0161E083E10E94EB018091B9008E7F35
:1005D0008093B9008091B9008D7F8093B90088E441
:1005E0008093B80085E48093BC001093BA00D09348
:1005F000B800DF91CF911F9108952091A401260F9B
:100600003327331F21323105ECF42091C801FC015E
:1006100090E080E0243069F082E00895A091A40188
:100620002191AC014C575E4FA40FB52FB11D2C93F7
:100630000196861798F38091A401680F6093A40136
:1006400080E0089581E0089508958FEF9FEF089569
:100650008FEF9FEF089580917D0190E091958195B6
:1006600091090895CF92DF92EF92FF920F931F931B
:10067000CF93DF937C01CB018A0120917C0122235F
:1006800089F0EB016B01C40ED51ECC15DD0569F0B8
:100690006991D701ED91FC910190F081E02DC701A6
:1006A0000995F3CF642F0E94FD02C801DF91CF911D
:1006B0001F910F91FF90EF90DF90CF900895CF930F
:1006C000DF931F92CDB7DEB7698320917C0122238F
:1006D000F9F020917B01203258F021E030E0FC015C
:1006E0003383228390E080E00F90DF91CF910895D3
:1006F00080917A01E82FF0E0E65AFE4F99819083CD
:100700008F5F80937A0180937B0181E090E0ECCF52
:1007100061E0CE0101960E94FD02F7CFCF92DF92F9
:10072000EF92FF920F931F93CF93DF93FC01C4814D
:1007300021E020937C01C093590110927A0110921C
:100740007B018385682B8BE992E00E945F03D09147
:100750007B01D13208F092C00E9467026B017C01DC
:100760008091C801811165C082E08093C80181E059
:100770008093CA018FEF8093C7011092EC01D09350
:10078000EB01AAE5B1E0EBECF1E080E0D81385C025
:100790001092ED018091ED01CC0FC82BC093ED01BB
:1007A0008091C901813009F07CC01092C9010E947A
:1007B00067026B017C018091ED018093BB00809109
:1007C0007F0190918001A0918101B0918201892BDC
:1007D0008A2B8B2B99F00E94670200917F01109168
:1007E000800120918101309182016C197D098E096F
:1007F0009F090617170728073907E0F18091BC0009
:1008000083FDD9CF85EC8093BC000E9467026B0109
:100810007C018091C801823009F445C08091C701F4
:100820008F3F61F18091C701803241F18091C70112
:1008300025C080917F0190918001A0918101B091AC
:100840008201892B8A2B8B2B09F48ACF0E946702A5
:1008500000917F01109180012091810130918201EE
:100860006C197D098E099F09061717072807390794
:1008700008F076CF80917E010E94BE0210927A012C
:1008800010927B0110927C01DF91CF911F910F910B
:10089000FF90EF90DF90CF9008959D9191938F5F9F
:1008A00075CF85EEB0CF80917F0190918001A091AE
:1008B0008101B0918201892B8A2B8B2B09F4A9CF5E
:1008C0000E94670200917F011091800120918101B7
:1008D000309182016C197D098E099F09061717074F
:1008E0002807390708F095CFC5CF089590E080E03C
:1008F00008950F931F93CF93DF9382E00E94C2016C
:100900008C0183E00E94C201EC0188E00E94C201D8
:1009100020915801211110C0012B41F060E089E0C5
:10092000DF91CF911F910F910C94EB01CD2BB1F37F
:10093000892BA1F361E0F3CFDF91CF911F910F914C
:1009400008958F929F92AF92BF920F931F93CF9370
:10095000DF93CDB7DEB7A1970FB6F894DEBF0FBE19
:10096000CDBF19A2423008F44AE08E010F5D1F4F3F
:10097000842E912CB12CA12CA50194010E94990CDC
:10098000E62FB901CA01EA3044F5E05DD801EE93E3
:100990008D01232B242B252B79F790E080E01097F5
:1009A00069F0FD0101900020E9F73197AF014A1B82
:1009B0005B0BBD0187EA92E00E948C00A1960FB606
:1009C000F894DEBF0FBECDBFDF91CF911F910F9185
:1009D000BF90AF909F908F900895E95CD7CFFC01B6
:1009E00001900020E9F73197AF01481B590BBC017A
:1009F00087EA92E00C948C000F931F93CF938C01A5
:100A0000C62F0E948E036C2F6460C8010E948E0363
:100A10006C2F6B7FC8010E948E0383EC90E00197DE
:100A2000F1F7CF911F910F9108950F931F93CF93DB
:100A3000DF938C01D62FC42F607F642B0E94FC04AF
:100A400080E1D89FB00111246C2BC801DF91CF91B8
:100A50001F910F910C94FC04CF93DF93CDB7DEB7B9
:100A600028970FB6F894DEBF0FBECDBF98E0E8E040
:100A7000F1E0DE01119601900D929A95E1F79091C7
:100A8000AF02961708F46FEF262F30E0220F331FC6
:100A900041E050E04C0F5D1F240F351FF9016081CC
:100AA000680F606840E087EA92E028960FB6F894F5
:100AB000DEBF0FBECDBFDF91CF910C94150541E095
:100AC0000E94150581E090E00895CF92DF92EF92A9
:100AD000FF926C01990FEE08FF08F7FE16C041E087
:100AE0006DE287EA92E00E94150566277727CB0121
:100AF0006C197D098E099F094AE00E94A1040196A4
:100B0000FF90EF90DF90CF9008954AE0C701B601C3
:100B1000FF90EF90DF90CF900C94A10485ED80932F
:100B2000BC0080917F0190918001A0918101B091E2
:100B300082010796A11DB11D23E0B695A795979553
:100B400087952A95D1F72091BC0024FD03C010920F
:100B5000C801089540917F01509180016091810109
:100B600070918201452B462B472B69F30097A10515
:100B7000B10541F02AE22A95F1F700C00197A109D9
:100B8000B109E1CF80917E010C94BE021F920F92B9
:100B90000FB60F9211242F933F934F935F936F9350
:100BA0007F938F939F93AF93BF93EF93FF938EEFBA
:100BB00091E00E940A01FF91EF91BF91AF919F9147
:100BC0008F917F916F915F914F913F912F910F90F6
:100BD0000FBE0F901F9018951F920F920FB60F9295
:100BE00011242F938F939F93EF93FF93E0910E0225
:100BF000F0910F028081E0911402F091150282FDC4
:100C00001BC09081809117028F5F8F732091180213
:100C1000821741F0E0911702F0E0E250FE4F958F0D
:100C200080931702FF91EF919F918F912F910F90D9
:100C30000FBE0F901F9018958081F4CF1F920F92D6
:100C40000FB60F9211242F933F938F939F93AF93DF
:100C5000BF938091EF019091F001A091F101B091CB
:100C6000F2013091EE0123E0230F2D3758F5019664
:100C7000A11DB11D2093EE018093EF019093F0012F
:100C8000A093F101B093F2018091F3019091F401EE
:100C9000A091F501B091F6010196A11DB11D8093BF
:100CA000F3019093F401A093F501B093F601BF9185
:100CB000AF919F918F913F912F910F900FBE0F9009
:100CC0001F90189526E8230F0296A11DB11DD2CFC3
:100CD0001F920F920FB60F9211242F933F934F93B1
:100CE0005F936F937F938F939F93AF93BF93EF9394
:100CF000FF938091B900887F803609F44AC0F0F5EF
:100D0000883209F4A5C018F5803109F499C0B8F407
:100D1000882309F4F5C0883009F492C0FF91EF915F
:100D2000BF91AF919F918F917F916F915F914F9103
:100D30003F912F910F900FBE0F901F901895883103
:100D400009F486C0803251F78093C70114C0803403
:100D500009F49BC040F48033B9F38833F9F68093EB
:100D6000C70185ECAEC0803509F483C0883509F42D
:100D700094C0883499F60E948E05D0CF883909F442
:100D80008AC038F5883729F050F4883611F080375A
:100D900029F683E08093C8011092C60155C08838B7
:100DA00009F479C0803919F0803809F0B7CF809103
:100DB000C601803208F06FC0E091C60181E08E0F5D
:100DC0008093C6018091BB00F0E0EA55FE4F80831E
:100DD0003BC0803B39F0D0F4803A09F477C0883AC0
:100DE00009F09CCF84E08093C8011092A501109275
:100DF000A401F0E0E0E009958091A40181110FC009
:100E000081E08093A4011092840109C0803C09F420
:100E1000A8CF883C09F4A5CF883B09F07FCFE091AB
:100E2000A50181E08E0F8093A501F0E0EC57FE4F05
:100E300080818093BB009091A5018091A40129C07D
:100E40008091ED018093BB0085EC8093BC0066CF60
:100E50009091EC018091EB01981758F5E091EC012D
:100E600081E08E0F8093EC01F0E0E553FE4F80812E
:100E7000E9CFE091EC0181E08E0F8093EC0180914D
:100E8000BB00F0E0E553FE4F80839091EC01809130
:100E9000EB019817C8F285E8D8CFE091EC0181E02A
:100EA0008E0F8093EC018091BB00F0E0E553FE4F84
:100EB00080838091CA0181115ECF81E08093C90156
:100EC00084EA8093BC001092C80128CF85EC8093FF
:100ED000BC001092C8018091C601803230F4E091CC
:100EE000C601F0E0EA55FE4F10826091C60170E045
:100EF00086EA91E0F0E0E0E009951092C6010ECF9D
:100F00001092C70138CF1F920F920FB60F92112483
:100F10002F933F934F935F936F937F938F939F9301
:100F2000AF93BF93EF93FF938EB58F3701F5809109
:100F3000580191E08927809358018823A9F060E047
:100F400089E00E94EB01FF91EF91BF91AF919F91DA
:100F50008F917F916F915F914F913F912F910F9062
:100F60000FBE0F901F9018950E947904ECCF81114D
:100F700004C08091FC018EBDE6CF813021F48091C8
:100F8000FA018456F8CF823019F48091F801F3CF3A
:100F90008330C9F68091F701EECF1F920F920FB602
:100FA0000F9211242F933F934F935F936F937F93EF
:100FB0008F939F93AF93BF93EF93FF930E94790416
:100FC000FF91EF91BF91AF919F918F917F916F9121
:100FD0005F914F913F912F910F900FBE0F901F90F7
:100FE00018951F920F920FB60F9211242F933F93D3
:100FF0004F935F936F937F938F939F93AF93BF9321
:10100000EF93FF930E94CD07FF91EF91BF91AF91B6
:101010009F918F917F916F915F914F913F912F9110
:101020000F900FBE0F901F9018951F920F920FB642
:101030000F9211242F933F934F935F936F937F935E
:101040008F939F93AF93BF93EF93FF930E94CD072E
:10105000FF91EF91BF91AF919F918F917F916F9190
:101060005F914F913F912F910F900FBE0F901F9066
:101070001895EEEFF1E01382128288EE93E0A0E083
:10108000B0E084839583A683B78324E131E0318384
:10109000208325EC30E03587248724EC30E0378747
:1010A000268720EC30E0318B208B21EC30E0338B35
:1010B000228B22EC30E0358B248B26EC30E0378B12
:1010C000268B118E128E138E148EEBE9F2E01382B2
:1010D000128284839583A683B78386E291E091830D
:1010E0008083E7EAF2E01382128288E391E0918341
:1010F000808380E2848380E1818782E08287138617
:101100000895789484B5826084BD84B5816084BD7F
:1011100085B5826085BD85B5816085BD80916E0095
:10112000816080936E0010928100809181008260C6
:101130008093810080918100816080938100809103
:1011400080008160809380008091B10084608093F2
:10115000B1008091B00081608093B00080917A00EE
:10116000846080937A0080917A00826080937A0014
:1011700080917A00816080937A0080917A00806803
:1011800080937A001092C10062E088E00E94190208
:1011900062E083E00E94190260E082E00E9419028E
:1011A00061E089E00E94190261E08CE00E9419026E
:1011B00060E08BE00E94190260E08DE00E9419025D
:1011C00060E08AE00E94190282E00E94C2017C0174
:1011D00083E00E94C201EC0188E00E94C201EF2876
:1011E00009F48BC160E089E00E94EB018091AC02C0
:1011F00088608093AC0212E01093AF0262E370E06B
:1012000080E090E00E948C026091B20287EA92E056
:101210000E948E0368EE73E080E090E00E948C02F2
:1012200060E387EA92E00E94FC04CBE4D6E4CE01BE
:101230000197F1F760E387EA92E00E94FC042197AE
:10124000F1F760E387EA92E00E94FC0483E592E014
:101250000197F1F760E287EA92E00E94FC04609156
:10126000AC02606240E087EA92E00E94150584E0EB
:101270008093AD0240E06CE087EA92E00E941505A1
:1012800040E061E087EA92E00E941505CBE3DFE1F0
:10129000CE010197F1F71093AE0240E066E087EAD5
:1012A00092E00E94150540E062E087EA92E00E9429
:1012B00015052197F1F740E060E487EA92E00E948B
:1012C0001505C0E0D1E0699187EA92E00E945F05D0
:1012D00081E0C830D807B9F760E080E00E942C05B3
:1012E00080E491E00E94EF0460E086E00E942C051B
:1012F00086E491E00E94EF0461E080E00E942C050A
:1013000089E491E00E94EF0461E089E00E942C05ED
:101310008CE491E00E94EF048DEE8CBDE0910E0212
:10132000F0910F0282E08083E0910A02F0910B02BB
:101330001082E0910C02F0910D028FEC80831092EC
:101340001602E0911202F091130286E08083E09190
:101350001002F0911102808180618083E09110027F
:10136000F0911102808188608083E0911002F091F9
:101370001102808180688083E0911002F091110257
:1013800080818F7D80838FB780688FBF85E0809359
:10139000690083E08DBB81E08093680080936B00DF
:1013A000C0E0D0E08EE00E945502BC01990F880B8E
:1013B000990B0E94A00B20E030E04AEF53E40E941A
:1013C0002C0C20E030EC4FE754E40E94F60A20E0B9
:1013D00030E048E452E40E94890A0E94680B70934E
:1013E000FD016093FC018FE00E945502BC01990F42
:1013F000880B990B0E94A00B20E030E040E85AE3F4
:101400000E942C0C20E030E040E852E40E942C0CBA
:1014100020E030E048E453E40E948A0A0E94680B0E
:101420006B017093FB016093FA0180E10E94550209
:10143000BC01990F880B990B0E94A00B20E030E0B3
:1014400040E85AE30E942C0C20E030E040E052E4F7
:101450000E942C0C0E94680B7093F9016093F801B4
:1014600088E00E94C2012091F701019709F04DC068
:101470002F602093F70183E00E94C2012091F701C1
:10148000019709F044C0206F2093F70160E088E0E5
:101490000E942C05C6010E9465058FE491E00E9420
:1014A000EF0461E082E00E942C058091FC019091A4
:1014B000FD010E94650560E087EA92E00E945F05F9
:1014C00081E591E00E94EF0461E08BE00E942C0531
:1014D0008091F8019091F9010E94650584E591E001
:1014E0000E94EF04209709F45DCF0E94F600882344
:1014F00009F458CF0E94000055CFCD2B09F472CECD
:10150000892B09F46FCE61E06ECE207FB2CF2F70B1
:10151000BBCF5058BB27AA270E94A10A0C94F20BFC
:101520000E94E40B38F00E94EB0B20F039F49F3F4F
:1015300019F426F40C94E10B0EF4E095E7FB0C94FF
:10154000DB0BE92F0E94030C58F3BA1762077307ED
:101550008407950720F079F4A6F50C94250C0EF479
:10156000E0950B2EBA2FA02D0B01B90190010C01B3
:10157000CA01A0011124FF27591B99F0593F50F4CB
:10158000503E68F11A16F040A22F232F342F442723
:10159000585FF3CF469537952795A795F04053951B
:1015A000C9F77EF41F16BA0B620B730B840BBAF0EB
:1015B0009150A1F0FF0FBB1F661F771F881FC2F756
:1015C0000EC0BA0F621F731F841F48F4879577956A
:1015D0006795B795F7959E3F08F0B0CF9395880F24
:1015E00008F09927EE0F9795879508950E940A0BAA
:1015F0000C94F20B0E94EB0B58F00E94E40B40F0AD
:1016000029F45F3F29F00C94DB0B51110C94260C4C
:101610000C94E10B0E94030C68F39923B1F355235A
:1016200091F3951B550BBB27AA27621773078407F5
:1016300038F09F5F5F4F220F331F441FAA1FA9F38B
:1016400035D00E2E3AF0E0E832D091505040E69579
:10165000001CCAF72BD0FE2F29D0660F771F881FDA
:10166000BB1F261737074807AB07B0E809F0BB0BCD
:10167000802DBF01FF2793585F4F3AF09E3F5105E1
:1016800078F00C94DB0B0C94260C5F3FE4F3983E4F
:10169000D4F3869577956795B795F7959F5FC9F7CA
:1016A000880F911D9695879597F90895E1E0660F4B
:1016B000771F881FBB1F621773078407BA0720F0C4
:1016C000621B730B840BBA0BEE1F88F7E09508952D
:1016D0000E946F0B6894B1110C94260C08950E941F
:1016E0000B0C88F09F5798F0B92F9927B751B0F09D
:1016F000E1F0660F771F881F991F1AF0BA95C9F796
:1017000014C0B13091F00E94250CB1E008950C9402
:10171000250C672F782F8827B85F39F0B93FCCF3B5
:10172000869577956795B395D9F73EF49095809512
:10173000709561957F4F8F4F9F4F0895E89409C032
:1017400097FB3EF490958095709561957F4F8F4FF4
:101750009F4F9923A9F0F92F96E9BB279395F6950A
:10176000879577956795B795F111F8CFFAF4BB0F88
:1017700011F460FF1BC06F5F7F4F8F4F9F4F16C0EC
:10178000882311F096E911C0772321F09EE8872F76
:10179000762F05C0662371F096E8862F70E060E032
:1017A0002AF09A95660F771F881FDAF7880F9695AB
:1017B000879597F9089597F99F6780E870E060E052
:1017C00008959FEF80EC089500240A9416161706DA
:1017D00018060906089500240A9412161306140622
:1017E00005060895092E0394000C11F4882352F085
:1017F000BB0F40F4BF2B11F460FF04C06F5F7F4F3D
:101800008F4F9F4F089557FD9058440F551F59F023
:101810005F3F71F04795880F97FB991F61F09F3FDD
:1018200079F087950895121613061406551FF2CF06
:101830004695F1DF08C0161617061806991FF1CF56
:1018400086957105610508940895E894BB2766277D
:101850007727CB0197F908950E943F0C0C94F20B67
:101860000E94E40B38F00E94EB0B20F0952311F05E
:101870000C94DB0B0C94E10B11240C94260C0E94AD
:10188000030C70F3959FC1F3950F50E0551F629FB5
:10189000F001729FBB27F00DB11D639FAA27F00DC9
:1018A000B11DAA1F649F6627B00DA11D661F829FF0
:1018B0002227B00DA11D621F739FB00DA11D621FD5
:1018C000839FA00D611D221F749F3327A00D611DF2
:1018D000231F849F600D211D822F762F6A2F1124D4
:1018E0009F5750409AF0F1F088234AF0EE0FFF1F07
:1018F000BB1F661F771F881F91505040A9F79E3F5E
:10190000510580F00C94DB0B0C94260C5F3FE4F344
:10191000983ED4F3869577956795B795F795E795B3
:101920009F5FC1F7FE2B880F911D9695879597F9BC
:101930000895A1E21A2EAA1BBB1BFD010DC0AA1F10
:10194000BB1FEE1FFF1FA217B307E407F50720F028
:10195000A21BB30BE40BF50B661F771F881F991FA3
:101960001A9469F760957095809590959B01AC01EC
:10197000BD01CF010895EE0FFF1F0590F491E02DFA
:061980000994F894FFCF6A
:101986000C12120C0000000000004000140054006D
:10199600000000002C018C00B9007901EA00C800A3
:1019A600DC00000000005F033203760424032B03EF
:1019B60028032503000000005F058C0076047504EB
:1019C600436F6E313A00563D00543D00493D005686
:0819D600004320004120000045
:00000001FF
