:100000000C945D000C9447070C9428070C94850011
:100010000C9485000C9485000C9485000C9485004C
:100020000C9485000C9485000C9485000C94F506C6
:100030000C9485000C9485000C9485000C9485002C
:100040000C9490050C9485000C945E050C94380576
:100050000C9485000C9485000C9485000C9485000C
:100060000C94DA050C94850000000000250028009F
:100070002B0000000008000201000003040700003C
:1000800000000000000000000000240027002A00FB
:10009000010204081020408001020408102001021F
:1000A00004081020040404040404040402020202EC
:1000B0000202030303030303980711241FBECFEFBB
:1000C000D8E0DEBFCDBF11E0A0E0B1E0E2E8F6E1AC
:1000D00002C005900D92A436B107D9F722E0A4E63C
:1000E000B1E001C01D92AE3CB207E1F710E0CDE5F2
:1000F000D0E004C02197FE010E94390BCC35D10716
:10010000C9F70E94E0070C943F0B0C940000AF92DB
:10011000BF92CF92DF92EF92FF920F931F93CF93F4
:10012000DF936C017B018B01040F151FEB015E0156
:10013000AE18BF08C017D10759F06991D601ED91EB
:10014000FC910190F081E02DC6010995892B79F78A
:10015000C501DF91CF911F910F91FF90EF90DF903C
:10016000CF90BF90AF900895FC01538D448D252F03
:1001700030E0842F90E0821B930B541710F0CF9641
:10018000089501970895FC01918D828D981761F073
:10019000A28DAE0FBF2FB11D5D968C91928D9F5F8A
:1001A0009F73928F90E008958FEF9FEF0895FC0169
:1001B000918D828D981731F0828DE80FF11D858D1C
:1001C00090E008958FEF9FEF0895FC01918D228DAF
:1001D000892F90E0805C9F4F821B91098F73992734
:1001E000089589E192E00E94E50021E0892B09F45D
:1001F00020E0822F089580E090E0892B29F00E9472
:10020000F10081110C9400000895FC01A48DA80F49
:10021000B92FB11DA35ABF4F2C91848D90E0019648
:100220008F739927848FA689B7892C93A089B18968
:100230008C91837080648C93938D848D981306C009
:100240000288F389E02D80818F7D80830895EF926D
:10025000FF920F931F93CF93DF93EC0181E0888F80
:100260009B8D8C8D98131AC0E889F989808185FF50
:1002700015C09FB7F894EE89FF896083E889F989F2
:1002800080818370806480839FBF81E090E0DF91F4
:10029000CF911F910F91FF90EF900895F62E0B8D47
:1002A00010E00F5F1F4F0F731127E02E8C8D8E1102
:1002B0000CC00FB607FCFACFE889F989808185FF69
:1002C000F5CFCE010E940501F1CFEB8DEC0FFD2F94
:1002D000F11DE35AFF4FF0829FB7F8940B8FEA8924
:1002E000FB8980818062CFCFCF93DF93EC01888D33
:1002F0008823B9F0AA89BB89E889F9898C9185FDA1
:1003000003C0808186FD0DC00FB607FCF7CF8C912E
:1003100085FFF2CF808185FFEDCFCE010E940501E0
:10032000E9CFDF91CF91089590E0FC01EE58FF4FA7
:100330002491FC01E057FF4F3491FC01EC55FF4F35
:10034000E491EE23C9F0222339F0233001F1A8F41F
:10035000213019F1223029F1F0E0EE0FFF1FE859AA
:10036000FF4FA591B4918FB7F894EC91611126C01D
:1003700030953E233C938FBF08952730A9F0283055
:10038000C9F0243049F7809180008F7D03C08091AF
:1003900080008F7780938000DFCF84B58F7784BD16
:1003A000DBCF84B58F7DFBCF8091B0008F778093BA
:1003B000B000D2CF8091B0008F7DF9CF3E2BDACF45
:1003C000CF93DF9390E0FC01E057FF4F24918C55D1
:1003D0009F4FFC0184918823C9F090E0880F991FFA
:1003E000FC01EA57FF4FA591B491FC01E859FF4F7A
:1003F000C591D49161110DC09FB7F8948C9120954F
:1004000082238C938881282328839FBFDF91CF91FB
:100410000895623051F49FB7F8943C91822F8095F3
:1004200083238C93E8812E2BEFCF8FB7F894EC9138
:100430002E2B2C938FBFEACF3FB7F8948091000208
:1004400090910102A0910202B091030226B5A89BEF
:1004500005C02F3F19F00196A11DB11D3FBFBA2F56
:10046000A92F982F8827BC01CD01620F711D811D16
:10047000911D42E0660F771F881F991F4A95D1F79B
:1004800008958F929F92AF92BF92CF92DF92EF9298
:10049000FF924B015C010E941C026B017C010E94D7
:1004A0001C026C197D098E099F09683E7340810505
:1004B0009105A8F321E0821A9108A108B10888EEFD
:1004C000C80E83E0D81EE11CF11C81149104A10424
:1004D000B10429F7FF90EF90DF90CF90BF90AF90DD
:1004E0009F908F9008951F93CF93DF93C1E0C093A7
:1004F0009001882399F1D091B8001091BA008091B1
:10050000BC008A7B8093BC0060E082E10E94940181
:1005100060E083E10E9494011092D501C093D7015D
:100520001092D60161E082E10E94940161E083E1D2
:100530000E9494018091B9008E7F8093B9008091D0
:10054000B9008D7F8093B90088E48093B80085E47A
:100550008093BC001093BA00D093B800DF91CF9184
:100560001F9108952091B101260F3327331F2132A7
:100570003105ECF42091D501FC0190E080E02430BD
:1005800069F082E00895A091B1012191AC014F562C
:100590005E4FA40FB52FB11D2C930196861798F3CB
:1005A0008091B101680F6093B10180E0089581E00E
:1005B000089508958FEF9FEF08958FEF9FEF0895AF
:1005C00080918A0190E09195819591090895CF924B
:1005D000DF92EF92FF920F931F93CF93DF937C01F3
:1005E000CB018A0120918901222389F0EB016B0163
:1005F000C40ED51ECC15DD0569F06991D701ED91CA
:10060000FC910190F081E02DC7010995F3CF642F93
:100610000E94B202C801DF91CF911F910F91FF900C
:10062000EF90DF90CF900895CF93DF931F92CDB7D7
:10063000DEB76983209189012223F9F02091880196
:10064000203258F021E030E0FC013383228390E037
:1006500080E00F90DF91CF91089580918701E82F7E
:10066000F0E0E959FE4F998190838F5F8093870175
:100670008093880181E090E0ECCF61E0CE010196AB
:100680000E94B202F7CFCF92DF92EF92FF920F93C8
:100690001F93CF93DF93FC01C48121E02093890154
:1006A000C093660110928701109288018385682BA0
:1006B00086EB92E00E941403D0918801D13208F0B9
:1006C00092C00E941C026B017C018091D5018111B6
:1006D00065C082E08093D50181E08093D7018FEFE0
:1006E0008093D4011092F901D093F801A7E6B1E00C
:1006F000E8EDF1E080E0D81385C01092FA01809116
:10070000FA01CC0FC82BC093FA018091D601813039
:1007100009F07CC01092D6010E941C026B017C0182
:100720008091FA018093BB0080918C0190918D01A2
:10073000A0918E01B0918F01892B8A2B8B2B99F080
:100740000E941C0200918C0110918D0120918E015C
:1007500030918F016C197D098E099F0906171707C3
:1007600028073907E0F18091BC0083FDD9CF85ECE3
:100770008093BC000E941C026B017C018091D5011A
:10078000823009F445C08091D4018F3F61F180919E
:10079000D401803241F18091D40125C080918C0137
:1007A00090918D01A0918E01B0918F01892B8A2BA0
:1007B0008B2B09F48ACF0E941C0200918C011091AE
:1007C0008D0120918E0130918F016C197D098E0968
:1007D0009F09061717072807390708F076CF809179
:1007E0008B010E947302109287011092880110926F
:1007F0008901DF91CF911F910F91FF90EF90DF90D2
:10080000CF9008959D9191938F5F75CF85EEB0CF76
:1008100080918C0190918D01A0918E01B0918F01FA
:10082000892B8A2B8B2B09F4A9CF0E941C020091E3
:100830008C0110918D0120918E0130918F016C19E6
:100840007D098E099F09061717072807390708F041
:1008500095CFC5CF089590E080E008958EBD00004B
:100860000DB407FEFDCF8EB508958F929F92AF9283
:10087000BF920F931F93CF93DF93CDB7DEB7A197AE
:100880000FB6F894DEBF0FBECDBF19A2423008F4F8
:100890004AE08E010F5D1F4F842E912CB12CA12CAC
:1008A000A50194010E94170BE62FB901CA01EA3095
:1008B00044F5E05DD801EE938D01232B242B252BED
:1008C00079F790E080E0109769F0FD010190002039
:1008D000E9F73197AF014A1B5B0BBD0182EC92E057
:1008E0000E948700A1960FB6F894DEBF0FBECDBF61
:1008F000DF91CF911F910F91BF90AF909F908F90FC
:100900000895E95CD7CFFC0101900020E9F7319709
:10091000AF01481B590BBC0182EC92E00C9487009C
:100920000F931F93CF938C01C62F0E9443036C2F0C
:100930006460C8010E9443036C2F6B7FC8010E9452
:10094000430383EC90E00197F1F7CF911F910F9152
:1009500008950F931F93CF93DF938C01D62FC42F4D
:10096000607F642B0E94900480E1D89FB001112425
:100970006C2BC801DF91CF911F910F910C949004C3
:10098000CF93DF93CDB7DEB728970FB6F894DEBFCD
:100990000FBECDBF98E0E8E0F1E0DE0111960190D6
:1009A0000D929A95E1F79091CA02961708F46FEFAD
:1009B000262F30E0220F331F41E050E04C0F5D1F27
:1009C000240F351FF9016081680F606840E082ECF8
:1009D00092E028960FB6F894DEBF0FBECDBFDF9130
:1009E000CF910C94A90441E00E94A90481E090E019
:1009F0000895BC01990F880B990B4AE00C943504BB
:100A000085ED8093BC0080918C0190918D01A09127
:100A10008E01B0918F010796A11DB11D23E0B695FF
:100A2000A795979587952A95D1F72091BC0024FD2D
:100A300003C01092D501089540918C0150918D0111
:100A400060918E0170918F01452B462B472B69F3E6
:100A50000097A105B10541F02AE22A95F1F700C0FF
:100A60000197A109B109E1CF80918B010C94730228
:100A70001F920F920FB60F9211242F933F934F9313
:100A80005F936F937F938F939F93AF93BF93EF93F6
:100A9000FF9389E192E00E940501FF91EF91BF91E0
:100AA000AF919F918F917F916F915F914F913F9106
:100AB0002F910F900FBE0F901F9018951F920F92BD
:100AC0000FB60F9211242F938F939F93EF93FF9361
:100AD000E0912902F0912A028081E0912F02F091A9
:100AE000300282FD1BC09081809132028F5F8F7334
:100AF00020913302821741F0E0913202F0E0E75E8C
:100B0000FD4F958F80933202FF91EF919F918F91CE
:100B10002F910F900FBE0F901F9018958081F4CFEA
:100B20001F920F920FB60F9211242F933F938F9322
:100B30009F93AF93BF938091FC019091FD01A09191
:100B4000FE01B091FF013091FB0123E0230F2D370F
:100B500058F50196A11DB11D2093FB018093FC0166
:100B60009093FD01A093FE01B093FF0180910002DC
:100B700090910102A0910202B09103020196A11D81
:100B8000B11D8093000290930102A0930202B093E2
:100B90000302BF91AF919F918F913F912F910F9041
:100BA0000FBE0F901F90189526E8230F0296A11DE7
:100BB000B11DD2CF1F920F920FB60F9211242F9317
:100BC0003F934F935F936F937F938F939F93AF93D5
:100BD000BF93EF93FF938091B900887F803609F42B
:100BE0004AC0F0F5883209F4A5C018F5803109F43F
:100BF00099C0B8F4882309F4F5C0883009F492C08C
:100C0000FF91EF91BF91AF919F918F917F916F91E4
:100C10005F914F913F912F910F900FBE0F901F90BA
:100C20001895883109F486C0803251F78093D40139
:100C300014C0803409F49BC040F48033B9F3883386
:100C4000F9F68093D40185ECAEC0803509F483C0F9
:100C5000883509F494C0883499F60E940005D0CFF5
:100C6000883909F48AC038F5883729F050F4883675
:100C700011F0803729F683E08093D5011092D301DB
:100C800055C0883809F479C0803919F0803809F0E6
:100C9000B7CF8091D301803208F06FC0E091D301CB
:100CA00081E08E0F8093D3018091BB00F0E0ED5482
:100CB000FE4F80833BC0803B39F0D0F4803A09F48A
:100CC00077C0883A09F09CCF84E08093D5011092D8
:100CD000B2011092B101F0E0E0E009958091B1011C
:100CE00081110FC081E08093B1011092910109C080
:100CF000803C09F4A8CF883C09F4A5CF883B09F0D3
:100D00007FCFE091B20181E08E0F8093B201F0E0DD
:100D1000EF56FE4F80818093BB009091B20180918D
:100D2000B10129C08091FA018093BB0085EC8093CA
:100D3000BC0066CF9091F9018091F801981758F5A1
:100D4000E091F90181E08E0F8093F901F0E0E85223
:100D5000FE4F8081E9CFE091F90181E08E0F809311
:100D6000F9018091BB00F0E0E852FE4F8083909142
:100D7000F9018091F8019817C8F285E8D8CFE09181
:100D8000F90181E08E0F8093F9018091BB00F0E0C2
:100D9000E852FE4F80838091D70181115ECF81E0C0
:100DA0008093D60184EA8093BC001092D50128CFAD
:100DB00085EC8093BC001092D5018091D3018032E4
:100DC00030F4E091D301F0E0ED54FE4F10826091D9
:100DD000D30170E083EB91E0F0E0E0E00995109240
:100DE000D3010ECF1092D40138CF1F920F920FB6BD
:100DF0000F9211248F939F938091640190916501CC
:100E0000009779F481E090E090936501809364010C
:100E1000809318029F918F910F900FBE0F901F909B
:100E200018958130910551F482E090E0909365012E
:100E30008093640181E080931002ECCF029751F718
:100E4000109265011092640181E080930A02E2CF62
:100E50001F920F920FB60F9211248F939F93809140
:100E600011029091120201968330910559F09093EE
:100E70001202809311029F918F910F900FBE0F90DD
:100E80001F9018951092120210921102F4CF1F9227
:100E90000F920FB60F9211242F933F934F935F93AE
:100EA0006F937F938F939F93AF93BF93CF93DF9372
:100EB000EF93FF9360E08AE00E949401C3E2D0E0E8
:100EC000CE010197F1F78FE70E942E0461E08AE0DE
:100ED0000E94940160E089E00E949401CE01019794
:100EE000F1F78FE70E942E0461E089E00E949401EF
:100EF00060E088E00E9494012197F1F78FE70E945B
:100F00002E0461E088E00E949401FF91EF91DF914F
:100F1000CF91BF91AF919F918F917F916F915F9191
:100F20004F913F912F910F900FBE0F901F901895EA
:100F3000E9E1F2E01382128288EE93E0A0E0B0E0F3
:100F400084839583A683B78324E131E031832083B2
:100F500025EC30E03587248724EC30E0378726877E
:100F600020EC30E0318B208B21EC30E0338B228B76
:100F700022EC30E0358B248B26EC30E0378B268B4F
:100F8000118E128E138E148EE6EBF2E01382128213
:100F900084839583A683B78386E291E091838083DF
:100FA000E2ECF2E01382128288E391E09183808385
:100FB00080E2848380E1818782E0828713860895BE
:100FC000789484B5826084BD84B5816084BD85B524
:100FD000826085BD85B5816085BD80916E00816030
:100FE00080936E00109281008091810082608093D6
:100FF00081008091810081608093810080918000D8
:101000008160809380008091B10084608093B10002
:101010008091B00081608093B00080917A008460FC
:1010200080937A0080917A00826080937A00809128
:101030007A00816080937A0080917A008068809342
:101040007A001092C100E0912902F0912A0212E088
:101050001083E0912502F09126021082E091270290
:10106000F09128028FEC808310923102E0912D02E2
:10107000F0912E0286E08083E0912B02F0912C0209
:10108000808180618083E0912B02F0912C0280812D
:1010900088608083E0912B02F0912C02808180682F
:1010A0008083E0912B02F0912C0280818F7D8083E0
:1010B00061E08AE00E94E00161E089E00E94E001D5
:1010C00061E088E00E94E00160E08CE00E94E001C5
:1010D00062E083E00E94E00162E082E00E94E001C1
:1010E00061E087E00E94E00161E086E00E94E001AB
:1010F0008091C70288608093C7021093CA0262E39E
:1011000070E080E090E00E9441026091CD0282ECAC
:1011100092E00E94430368EE73E080E090E00E945A
:10112000410260E382EC92E00E949004CBE4D6E4BA
:10113000CE010197F1F760E382EC92E00E94900407
:101140002197F1F760E382EC92E00E94900483E53E
:1011500092E00197F1F760E282EC92E00E94900445
:101160006091C702606240E082EC92E00E94A904B4
:1011700084E08093C80240E06CE082EC92E00E9440
:10118000A90440E061E082EC92E00E94A904CBE374
:10119000DFE1CE010197F1F71093C90240E066E06C
:1011A00082EC92E00E94A90440E062E082EC92E0CE
:1011B0000E94A9042197F1F740E060E482EC92E0FC
:1011C0000E94A904C0E0D1E008E011E0699182EC3E
:1011D00092E00E94F3040C171D07C1F760E080E065
:1011E0000E94C00480E491E00E94830460E086E0F5
:1011F0000E94C00486E491E00E94830461E080E0E4
:101200000E94C00489E491E00E94830461E089E0C7
:101210000E94C0048CE491E00E9483048FB7806830
:101220008FBF81E08093690083E08DBB61E08AE03D
:101230000E94940161E089E00E94940161E088E0ED
:101240000E949401CFB7F89480910402811127C0C5
:10125000EEEAF0E08491EAE9F0E09491E82FF0E022
:10126000EE0FFF1FEA57FF4FA591B491EC91E923D0
:1012700021F461E08AE00E94940161E08AE00E942A
:10128000E0018CB580618CBD8CB580648CBD61E063
:101290008DE00E94E00161E08BE00E94E00180911E
:1012A00004028F5F80930402CFBF8DE78CBD68EE90
:1012B00073E080E090E00E944102109280008DE394
:1012C0008093890089E08093880082E080936F009A
:1012D0008DE080938100C3E2D0E030E0E32E30E087
:1012E000F32E80911802882369F160E08AE00E9461
:1012F0009401CE010197F1F780E00E942E0461E095
:101300008AE00E94940123E1C22E22E0D22E11E055
:1013100060E08AE00E949401CE010197F1F7812FED
:101320000E942E048093170261E08AE00E949401DB
:1013300080911702F60181936F011F5F153041F70D
:10134000109218028091110290911202892B09F0DB
:1013500046C060E080E00E94C00480E491E00E940A
:10136000830460E088E00E94C0048091140290E051
:101370008C599F4F0E94F9048FE491E00E948304EE
:1013800061E082E00E94C0048091130290E00E941C
:10139000F90460E082EC92E00E94F30481E591E0C0
:1013A0000E94830461E08BE00E94C00480911502DA
:1013B00090E00E94F90484E591E00E94830480910A
:1013C000160260E08F3F21F0803F09F00FC161E01D
:1013D00087E00E94940160E086E00E949401809181
:1013E0001002882369F160E089E00E949401CE0137
:1013F0000197F1F780E00E942E0461E089E00E94ED
:1014000094019BE0C92E92E0D92E11E060E089E0C2
:101410000E949401CE010197F1F7812F0E942E04C2
:1014200080930F0261E089E00E94940180910F0295
:10143000F60181936F011F5F153041F71092100282
:101440008091110290911202019709F046C060E06C
:1014500080E00E94C00487E591E00E94830460E080
:1014600088E00E94C00480910C0290E08C599F4F4C
:101470000E94F9048FE491E00E94830461E082E01D
:101480000E94C00480910B0290E00E94F90460E089
:1014900082EC92E00E94F30481E591E00E948304D3
:1014A00061E08BE00E94C00480910D0290E00E94F8
:1014B000F90484E591E00E94830480910E0260E0CB
:1014C0008F3F21F0803F09F09CC061E087E00E94DF
:1014D000940160E086E00E94940180910A028823D2
:1014E00069F160E088E00E949401CE010197F1F774
:1014F00080E00E942E0461E088E00E94940185E073
:10150000C82E82E0D82E11E060E088E00E949401AD
:10151000CE010197F1F7812F0E942E0480930902DA
:1015200061E088E00E94940180910902F6018193B4
:101530006F011F5F153041F710920A02809111026E
:1015400090911202029709F045C060E080E00E948D
:10155000C0048DE591E00E94830460E088E00E9471
:10156000C0048091060290E08C599F4F0E94F904BC
:101570008FE491E00E94830461E082E00E94C00455
:101580008091050290E00E94F90460E082EC92E014
:101590000E94F30481E591E00E94830461E08BE006
:1015A0000E94C0048091070290E00E94F90484E543
:1015B00091E00E9483048091080260E08F3F19F05F
:1015C000803F51F561E087E00E94940160E086E091
:1015D0000E949401E114F10409F483CE0E94F10009
:1015E000882309F47ECE0E9400007BCE60E08F301D
:1015F00019F08111F4CE61E087E00E94940161E06E
:10160000EBCE60E08F3019F0811167CF61E087E0A9
:101610000E94940161E05ECF60E08F3019F081118B
:10162000D9CF61E087E00E94940161E0D0CFA1E2D0
:101630001A2EAA1BBB1BFD010DC0AA1FBB1FEE1F4C
:10164000FF1FA217B307E407F50720F0A21BB30B97
:10165000E40BF50B661F771F881F991F1A9469F713
:1016600060957095809590959B01AC01BD01CF016F
:101670000895EE0FFF1F0590F491E02D0994F89462
:02168000FFCF9A
:101682000C12120C00000000000040001400540074
:101692000000000027018700B4007401E500C300C8
:1016A200D700000000001403E7022B04D902E00275
:1016B200DD02DA0200000000F30487002B042A0492
:1016C200436F6E313A00563D00543D00493D00568D
:1016D20000432000412000436F6E323A00436F6E98
:0416E200333A000097
:00000001FF
